:020000040800F2
:100000007804002005010008792300087B230008FC
:100010007F230008832300088723000800000000D6
:100020000000000000000000000000008B2300081A
:100030008D230008000000008F23000881250008A0
:100040001F0100081F0100081F0100081F01000810
:100050001F0100081F0100081F0100081F01000800
:100060001F0100081F0100081F0100081F010008F0
:100070001F0100081F0100081F0100081F010008E0
:100080001F0100081F0100081F0100081F010008D0
:100090001F0100081F0100081F0100081F010008C0
:1000A0001F0100081F0100081F0100081F010008B0
:1000B0001F0100081F010008752200081F01000829
:1000C0001F0100081F0100081F0100081F01000890
:1000D0001F0100081F0100080B2300081F01000872
:1000E0001F0100081F0100081F010008DFF810D0E1
:1000F00003F0E6F800480047351D0008AFF3008024
:10010000780400200648804706480047FEE7FEE7DF
:10011000FEE7FEE7FEE7FEE7FEE7FEE7FEE7FEE7B7
:1001200007020008ED0000080CB5002001900090C7
:100130006C48006840F480306A49086000BF694834
:10014000006800F4003000900198401C0190009875
:1001500018B90198B0F5A06FF1D16248006800F4B9
:10016000003010B10120009001E0002000900098C4
:10017000012843D15C48006840F010005A490860EB
:100180000846006820F0030008600846006840F058
:100190000200086053484068524948600846406879
:1001A00048600846406840F48060486008464068FF
:1001B00020F47C1048600846406840F4E81048602D
:1001C0000846006840F08070086000BF454800683D
:1001D00000F000700028F9D04248406820F0030089
:1001E000404948600846406840F00200486000BF4F
:1001F0003C48406800F00C000828F9D10CBD10B54F
:10020000FFF792FF10BD10B53648006840F00100BE
:10021000344908600846406834490840314948601C
:1002200008460068324908402E49086008460068C0
:1002300020F4802008600846406820F4FE004860F2
:100240004FF41F008860FFF7DAFF4FF00060294984
:10025000086010BD10B5002100200022214B5B6812
:1002600003F00C0121B1042906D0082928D107E0A8
:10027000214B224C236027E01F4B204C236023E0BE
:10028000184B5B6803F47010164B5B6803F4803204
:10029000022303EB904022B9194B4343174C2360D0
:1002A0000DE0104B5B6803F4003323B1144B434360
:1002B000124C236003E0104B4343104C236003E0D7
:1002C0000D4B0E4C236000BF00BF064B5B68C3F3B1
:1002D00003130C4CE15C094B1B68CB40074C2360BB
:1002E00010BD000000100240002002400000FFF896
:1002F000FFFFF6FE08ED00E000127A00000000208B
:1003000000093D000400002031490143314A1160D9
:10031000704770B5002100230F22C47804B32D4C20
:10032000246804F4E064C4F5E064210AC1F1040324
:10033000CA40447804FA03F1847814402143090147
:10034000254C0678A155047804F01F050124AC4023
:1003500005786D11AD0005F1E025C5F8004109E013
:10036000047804F01F050124AC401C4D067876117A
:1003700045F8264070BD1A4A0A400243154B1B1F20
:100380001A60704739B1134A121D12680243114BAB
:100390001B1D1A6006E00F4A121D126882430D4BA6
:1003A0001B1D1A607047042808D14FF0E02109692D
:1003B00041F004014FF0E022116107E04FF0E0212D
:1003C000096921F004014FF0E0221161704700003B
:1003D0000000FA050CED00E000E400E080E100E040
:1003E00080FFFF1F10B50446CC48844208D101218C
:1003F000042000F02DFB0021042000F029FB46E042
:10040000C748844208D10121082000F021FB0021C7
:10041000082000F01DFB3AE0C248844208D10121C7
:10042000102000F015FB0021102000F011FB2EE041
:10043000BD48844208D10121202000F009FB0021A1
:10044000202000F005FB22E0B848844208D10121B9
:10045000402000F0FDFA0021402000F0F9FA16E0FB
:10046000B348844208D10121802000F0F1FA002134
:10047000802000F0EDFA0AE0AE48844207D1012165
:10048000801500F0E5FA0021A01500F0E1FA10BD9A
:1004900010B50121084600F0DBFA0021012000F030
:1004A000D7FA10BD2DE9F0410246002500260020B4
:1004B00000230024002791F803C00CF00F0591F8E9
:1004C00003C00CF0100CBCF1000F03D091F802C077
:1004D0004CEA050591F800C0BCF1000F31D014685A
:1004E00000202BE04FF0010C0CFA00F3B1F800C033
:1004F0000CEA03069E4220D183004FF00F0C0CFA49
:1005000003F7BC4305FA03FC4CEA040491F803C06A
:10051000BCF1280F06D14FF0010C0CFA00FCC2F818
:1005200014C00AE091F803C0BCF1480F05D14FF0A8
:10053000010C0CFA00FCC2F810C0401C0828D1D3F2
:100540001460B1F800C0BCF1FF0F34DD5468002026
:100550002EE000F1080C4FF0010808FA0CF3B1F896
:1005600000C00CEA03069E4221D183004FF00F0C1D
:100570000CFA03F7BC4305FA03FC4CEA040491F8B7
:1005800003C0BCF1280F05D100F1080C08FA0CF8E3
:10059000C2F8148091F803C0BCF1480F07D100F1F4
:1005A000080C4FF0010808FA0CF8C2F81080401C43
:1005B0000828CED35460BDE8F0814FF6FF7101806A
:1005C000022181700421C1707047024600209368A7
:1005D0000B400BB1012000E0002070470146886805
:1005E00080B2704702460020D3680B400BB1012057
:1005F00000E0002070470146C86880B27047016182
:100600007047416170470AB1016100E04161704784
:10061000C16070474FF480320A4382618161826118
:1006200082698269704702460020434B18684FF682
:100630008073184040EA021008433F4B186070472F
:100640003E49C8617047F0B50A46002300240021E6
:10065000002500F00046B6F1004F02D1364EF16998
:1006600001E0354E7168C0F3034583B200F44016D3
:10067000B6F5401F08D121F070612F4E766826F044
:1006800070662D4F7E6012E000F48016B6F5801F74
:1006900006D1032606FA05F4A14341F0706106E095
:1006A000460D360103FA06F6B14341F0706122B1FE
:1006B000460D360103FA06F6314300F00046B6F166
:1006C000004F02D11C4EF16101E01B4E7160F0BD84
:1006D00030B500228B071C0F0F2303FA04F2164BD0
:1006E00008338C1053F824309343134C08348D1086
:1006F00044F8253023468C1053F824308C07240FFF
:1007000000FA04F423430C4C08348D1044F82530CF
:1007100030BD0A49DC310860704700000008014024
:10072000000C01400010014000140140001801407D
:10073000001C014000200140000001400000204258
:10074000DF48006840F00100DD4908600846406865
:10075000DC490840DA49486008460068DA49084040
:10076000D74908600846006820F4802008600846E1
:10077000406820F4FE0048604FF41F008860704716
:10078000CF49096821F48031CD4A116011460968CA
:1007900021F480211160B0F5803F03D0B0F5802FA7
:1007A0000ED106E0C649096841F48031C44A11609F
:1007B00007E0C349096841F4A021C14A116000E083
:1007C00000BF00BF704710B5014600220023002083
:1007D0004A11012A02D1BA4C236806E0022A02D14A
:1007E000B74C236A01E0B64C636A01F01F02012492
:1007F00094401C400CB1012000E0002010BD38B531
:10080000002000900024002500BF3120FFF7DBFF0F
:1008100005460098401C00900098B0F5A06F01D0EC
:10082000002DF2D03120FFF7CEFF08B1012400E007
:100830000024204638BD01460020A14A106820F05F
:10084000F80040EAC10010607047A0490860704796
:10085000024600209A4B586820F47C1042EA0103BB
:100860001843974B5860704798490866704701468F
:100870000020934A506820F00300084350607047FE
:100880008F48406800F00C007047014600208C4AF9
:10089000506820F0F0000843506070470146002087
:1008A000874A506820F4E060084350607047014672
:1008B0000020834A506820F4605040EAC100506034
:1008C000704729B17E4A527A02437D4B5A7204E046
:1008D0007B4A527A82437A4B5A7270477B49D831AD
:1008E0000860704701460020754A506820F4404077
:1008F0000843506070470021714A20321170704ADD
:1009000082F82010012802D004280AD104E0012135
:100910006B4A2032117005E00521694A20321170BE
:1009200000E000BF00BF7047694908607047644934
:10093000096A0143624A1162704765494439086097
:10094000704730B500210022002400235C4D6D6803
:1009500005F00C0121B1042905D0082923D105E0B7
:100960005C4D056022E05B4D05601FE0544D6D68F5
:1009700005F47012524D6D6805F48034022505EBC4
:1009800092421CB9544D554305600BE04C4D6D68C7
:1009900005F400351DB1504D5543056002E04D4D45
:1009A0005543056002E04B4D056000BF00BF444D5C
:1009B0006D6805F0F0010909484D6B5C0568DD4084
:1009C00045603F4D6D6805F4E061090A434D6B5C7D
:1009D0004568DD4085603A4D6D6805F46051C90A8F
:1009E0003E4D6B5C4568DD40C560354D6D6805F476
:1009F0004041890B3A4D6B5CC568B5FBF3F5056169
:100A000030BD29B12E4A526902432D4B5A6104E090
:100A10002B4A526982432A4B5A61704729B1284AAE
:100A200092690243264B9A6104E0254A9269824307
:100A3000234B9A61704729B1214AD2690243204B66
:100A4000DA6104E01E4AD26982431D4BDA617047C5
:100A500029B11B4AD2680243194BDA6004E0184AF4
:100A6000D2688243164BDA60704729B1144A126982
:100A70000243134B1A6104E0114A12698243104B7E
:100A80001A61704712494039086070470F49C864BD
:100A900070470B49C87170470948406A40F0807040
:100AA00007494862704701460020054A92680A409B
:100AB0000AB1012000E000207047014988727047A8
:100AC000001002400000FFF8FFFFF6FE0000424267
:100AD0008004424200127A0000093D001400002008
:100AE0002400002010B50446FE48844208D10121AC
:100AF000C014FFF7ADFF0021E014FFF7A9FFC4E029
:100B0000B4F1804F08D101210846FFF7AEFF002164
:100B10000120FFF7AAFFB8E0F348844208D1012181
:100B20000220FFF7A2FF00210220FFF79EFFACE0AA
:100B3000EE48844208D101210420FFF796FF0021EE
:100B40000420FFF792FFA0E0E948844208D1012188
:100B50000820FFF78AFF00210820FFF786FF94E0B6
:100B6000E448844208D101211020FFF77EFF0021D4
:100B70001020FFF77AFF88E0DF48844208D1012186
:100B80002020FFF772FF00212020FFF76EFF7CE09E
:100B9000DA48844208D101214014FFF759FF0021AF
:100BA0006014FFF755FF70E0D548844209D1012158
:100BB000C804FFF74DFF00214FF40020FFF748FF66
:100BC00063E0D048844209D101210805FFF740FFC6
:100BD00000214FF48010FFF73BFF56E0CA488442E3
:100BE00009D101214805FFF733FF00214FF4001020
:100BF000FFF72EFF49E0C548844208D1012140207B
:100C0000FFF733FF00214020FFF72FFF3DE0C048F2
:100C1000844208D101218020FFF727FF0021802096
:100C2000FFF723FF31E0BB48844208D10121801542
:100C3000FFF71BFF0021A015FFF717FF25E0B648BF
:100C4000844209D101210804FFF702FF00214FF47B
:100C50008030FFF7FDFE18E0B048844209D1012141
:100C60004804FFF7F5FE00214FF40030FFF7F0FED7
:100C70000BE0AB48844208D101218804FFF7E8FE6D
:100C800000214FF48020FFF7E3FE10BD0022028810
:100C9000944B98420ED0994B98420BD0B0F1804FB4
:100CA00008D0914B984205D0904B984202D0904B7F
:100CB000984204D14FF68F731A404B881A438D4BDC
:100CC000984207D08C4B984204D04FF6FF431A400D
:100CD000CB881A4302808B8883850B880385814BE0
:100CE00098420BD0854B984208D08B4B984205D048
:100CF0008A4B984202D08A4B984201D10B7A0386E4
:100D000001238382704770B5002400220023058CE4
:100D10004FF6FE7635400584028C8388048B4FF6AF
:100D20008F752C40B51E2C400D882C43751E2A4013
:100D30000D892A434D882A436A4DA8420BD06F4D36
:100D4000A84208D0744DA84205D0744DA84202D0E4
:100D5000734DA84213D14FF6F7752A404D892A43A7
:100D60004FF6FB752A408D882A434FF6FF652B40CE
:100D70004FF6FF552B408D892B43CD892B43838024
:100D80000483CD888586028470BD70B5002400225E
:100D90000023058C4FF6EF7635400584028C83885E
:100DA000048B48F6FF752C404FF6FF452C400D880C
:100DB0004FF6FF7606EA05252C434FF6DF752A40ED
:100DC0000D8906EA05152A434D8806EA05152A43CA
:100DD000444DA84202D0494DA8421DD14FF67F751F
:100DE0002A404D894FF6FF7606EA05152A434FF64D
:100DF000BF752A408D8806EA05152A434FF6FF3550
:100E00002B404FF2FF752B408D8906EA85052B4359
:100E1000CD8906EA85052B4383800483CD88058729
:100E2000028470BD70B5002400220023058C4FF6AB
:100E3000FF6635400584028C8388848B4FF68F755E
:100E40002C404FF6FC752C400D882C434FF6FF5577
:100E50002A400D894FF6FF7606EA05252A434D887C
:100E600006EA05252A431F4DA84202D0234DA84279
:100E70001DD14FF2FF752A404D894FF6FF7606EAE5
:100E800005252A434FF6FF352A408D8806EA0525B9
:100E90002A434EF6FF752B404DF6FF752B408D898A
:100EA00006EA05152B43CD8906EA05152B438380F9
:100EB0008483CD888587028470BD70B500220023AD
:100EC0000024058C4EF6FF7635400584038C84881B
:100ED000828B48F6FF752A404FF6FF452A400D8861
:100EE00020E00000002C0140000400400008004009
:100EF000000C00400010004000140040003401408D
:100F0000004C0140005001400054014000180040D6
:100F1000001C00400020004000400140004401400F
:100F2000004801404FF6FF7606EA05252A434DF6B4
:100F3000FF752B400D8906EA05352B434D8806EADF
:100F400005352B43FA4DA84202D0FA4DA84208D1EC
:100F50004BF6FF752C408D894FF6FF7606EA851516
:100F60002C4384808283CD88A0F84050038470BDD8
:100F7000828B4FF2FF331A408283828B4FF6FF73CE
:100F800003EA01231A4382837047F0B50C461546E5
:100F9000002200210026078C4EF6FF7C07EA0C0792
:100FA0000784828B018C4FF6FF7707EA043640F600
:100FB000FF473A404FF6FF7707EA05273A434FF6D7
:100FC000FF7707EA03373A43D94FB8420ED0D94FDB
:100FD000B8420BD0B0F1804F08D0D74FB84205D0FF
:100FE000D64FB84202D0D64FB84206D14DF6FF7761
:100FF000394046F48057394305E047F6FF573940FA
:1010000044F48057394382830184F0BD828B4FF6CC
:10101000F3731A408283828B0A4382837047F0B550
:101020000C461546002200210026078C4FF6FF6C67
:1010300007EA0C070784828B018C4FF6FF7707EADB
:1010400004264FF60C773A404FF6FF7707EA03176E
:101050002F433A43B64FB8420ED0B64FB8420BD0EA
:10106000B0F1804F08D0B44FB84205D0B34FB8426A
:1010700002D0B34FB84206D14FF6FF57394046F47D
:101080008077394305E04FF2FF57394044F48077C9
:10109000394382830184F0BD028B4FF2FF331A4043
:1010A0000283028B4FF6FF7303EA01231A43028384
:1010B0007047F0B50C461546002200210026078C2B
:1010C0004FF6EF7C07EA0C070784028B018C4FF682
:1010D000FF7707EA041640F6FF473A404FF6FF77DE
:1010E00007EA03373A434FF6FF7707EA05273A4303
:1010F0008F4FB8420ED08F4FB8420BD0B0F1804F17
:1011000008D08D4FB84205D08C4FB84202D08C4FDA
:10111000B84206D14FF6DF77394046F01007394321
:1011200005E04FF65F77394044F0100739430283FA
:101130000184F0BD028B4FF6F3731A400283028BD9
:101140000A4302837047F0B50C4615460022002181
:10115000068C4FF6FE773E400684028B018C4FF6DC
:101160000C7632407E1C06EA03162E433243704E44
:10117000B0420ED06F4EB0420BD0B0F1804F08D0CD
:101180006D4EB04205D06D4EB04202D06C4EB042B2
:1011900006D14FF6FD76314044F00106314305E0BB
:1011A0004FF6F576314044F0010631430283018465
:1011B000F0BD70B505460C465D4885420ED05D48D1
:1011C00085420BD0B5F1804F08D05B48854205D0F1
:1011D0005A48854202D05A48854200D100E000BFFB
:1011E000208850B92389A28861882846FFF7ABFF81
:1011F000E1882846FFF79EFF25E0208804280AD1D1
:101200002389A28861882846FFF753FFE188284692
:10121000FFF742FF17E0208808280AD12389A28817
:1012200061882846FFF7FBFEE1882846FFF7EEFEBF
:1012300009E02389A28861882846FFF7A6FEE18895
:101240002846FFF795FE70BD2DE9F04105460C4696
:1012500000260127608808B9022600E00026A08841
:10126000012801D1022700E001272088A0B92389A5
:10127000A28861882846FFF766FFE1882846FFF7C5
:1012800059FF23893A4631462846FFF712FFE18885
:101290002846FFF701FF13E02389A28861882846CA
:1012A000FFF707FFE1882846FFF7F6FE23893A4655
:1012B00031462846FFF747FFE1882846FFF73AFF07
:1012C000BDE8F0810A884B881A438B881A43CB8883
:1012D0001A430B891A434B891A438B891A43A0F886
:1012E000442070474FF6FF71818000210180C1804A
:1012F0004180017270470021018041808180C1805E
:10130000018141818181C18170470021018041803B
:10131000012181800021C18001817047002101806D
:1013200041808180C18001814181818170470000BD
:10133000002C01400034014000040040000800403F
:10134000000C004021B1028842F00102028004E05A
:1013500002884FF6FE731A400280704731B1B0F830
:10136000442042F40042A0F8442005E0B0F84420B4
:10137000C2F30E02A0F8442070471AB183890B43D0
:10138000838102E083898B43838170478182704728
:1013900041EA0203A0F8483070471AB183890B4331
:1013A000838102E083898B438381704701894FF6F3
:1013B000F8721140018170470A46002101894FF6F9
:1013C0008F73194011430181704730B504460D46B3
:1013D00029462046FFF7F0FF208940F007002081D2
:1013E00030BD2DE9F04104460D4616461F46602DDE
:1013F00006D13B46012231462046FFF75AFE05E062
:101400003B46012231462046FFF79DFE29462046F5
:10141000FFF7D2FF208940F007002081BDE8F0816E
:1014200030B50C4600210189C9B24FF6FF7505EAB7
:101430000325154325432943018130BD2DE9F041A2
:1014400005460E4617469846002443463A4631461E
:101450002846FFF7E5FF2C894FF6F870044044F06A
:1014600007044FF68F70044044F070042C81BDE8EF
:10147000F081F0B504460D4616461F463B463246FF
:1014800029462046FFF7CCFF208940F48040208188
:10149000F0BD0185828270470A46002101884FF61F
:1014A0008F731940114301807047F0B50C46154603
:1014B0001E460021002200230189028B038C4FF677
:1014C000F877394021434FF6FC473A4040F2011784
:1014D0003A434FF6DD773B404FF6FF7707EA0617B2
:1014E0002F433B43018102830384F0BD0A46002160
:1014F000018B4FF68F7319401143018370470A46E1
:101500000021018B48F6FF7319404FF6FF7303EA81
:1015100002231943018370470A460021818B4FF64D
:101520008F7319401143818370470A460021818BD4
:1015300048F6FF7319404FF6FF7303EA022319437D
:101540008183704721B1028842F08002028004E06A
:1015500002884FF67F731A400280704721B182885B
:1015600042F00402828004E082884FF6FB731A4046
:101570008280704721B1828842F00802828004E0B4
:1015800082884FF6F7731A408280704721B18288B3
:1015900042F00102828004E082884FF6FE731A4016
:1015A000828070470A460021018B4FF6F77319407D
:1015B0001143018370470A460021018B4FF2FF73EC
:1015C00019404FF6FF7303EA022319430183704762
:1015D0000A460021818B4FF6F7731940114381832E
:1015E00070470A460021818B4FF2FF7319404FF676
:1015F000FF7303EA02231943818370470A460021DF
:10160000018B4FF6FB7319401143018370470A4663
:101610000021018B4FF6FF3319404FF6FF7303EAA9
:1016200002231943018370470A460021818B4FF63C
:10163000FB7319401143818370470A460021818B57
:101640004FF6FF3319404FF6FF7303EA02231943A5
:10165000818370470A460021018B4FF67F73194042
:101660001143018370470A460021018BC1F30E012B
:101670004FF6FF7303EA02231943018370470A46BA
:101680000021818B4FF67F7319401143818370478E
:101690000A460021818BC1F30E014FF6FF7303EA66
:1016A00002231943818370470A460021018C4FF6BB
:1016B000FD7319401143018470470A460021018CD3
:1016C0004FF6F77319401143018470470A46002111
:1016D000018C4FF6DF7319404FF6FF7303EA0213D4
:1016E0001943018470470A460021018C4FF67F732D
:1016F00019404FF6FF7303EA021319430184704740
:101700000A460021018C4FF6FF5319404FF6FF7334
:1017100003EA02231943018470470A460021018C21
:101720004FF2FF7319404FF6FF7303EA0223194388
:10173000018470470A460021018C4DF6FF73194061
:101740004FF6FF7303EA023319430184704730B543
:10175000002301248C40A3B2048C9C430484048C99
:1017600002FA01F5ADB22C43048430BD30B500233C
:1017700004248C40A3B2048C9C430484048C02FA9D
:1017800001F5ADB22C43048430BD70B50346002092
:1017900000241846183001258D40ACB21D8CA5439D
:1017A0001D8409B1082909D100EB6100056825F005
:1017B000700505600568154305600EE00D1FC5F353
:1017C0004E052844056825F4E045056005684FF698
:1017D000FF7606EA02263543056070BD21B1028816
:1017E00042F00202028004E002884FF6FD731A40C4
:1017F0000280704721B1028842F00402028004E0B6
:1018000002884FF6FB731A400280704721B182882C
:1018100042F08002828004E082884FF67F731A4093
:101820008280704702884FF6F7731A400280028860
:101830000A430280704782884FF68F731A40828075
:1018400082880A438280704702894FF6F8731A40F3
:10185000028102890A430281704702894FF67F7331
:101860001A40028102890A430281704781847047CD
:1018700081857047818670470187704781877047EF
:10188000A0F84010704702884FF6FF431A400280CC
:1018900002880A43028070470146888E70470146DD
:1018A000088F70470146888F70470146B1F84000A5
:1018B00070470146888C70470146088D7047024684
:1018C0000020138A0B400BB1012000E0002070477C
:1018D000CA430282704730B502460020002300242C
:1018E000158A05EA0103958905EA010413B10CB1D3
:1018F000012000E0002030BDCA4302827047000092
:1019000010B50446FB48844209D101218803FFF742
:101910009FF800214FF48040FFF79AF832E0F64834
:10192000844209D101214804FFF79FF800214FF4B8
:101930000030FFF79AF825E0F048844209D10121F0
:101940008804FFF792F800214FF48020FFF78DF80C
:1019500018E0EB48844209D10121C804FFF785F85B
:1019600000214FF40020FFF780F80BE0E5488442A7
:1019700008D101210805FFF778F800214FF4801005
:10198000FFF773F810BD2DE9F04786B005460E4607
:101990000024A24600BFA1460027B08900B100BFC5
:1019A0002F462C8A4CF6FF700440F08804432C82AA
:1019B000AC894EF6F3100440B08831890843718930
:1019C00008430443AC81AC8A4FF6FF400440B08921
:1019D0000443AC8201A8FEF7B4FFC648874202D197
:1019E000DDF810A001E0DDF80CA0A88900F40040AB
:1019F00040B10AEBCA0000EB0A1031684900B0FBA5
:101A0000F1F807E00AEBCA0000EB0A103168890020
:101A1000B0FBF1F86420B8FBF0F004012009642168
:101A200001FB1089A88900F4004040B1322000EB8E
:101A3000C900B0FBF1F000F00700044308E03220D9
:101A400000EB09106421B0FBF1F000F00F0004433B
:101A50002C8106B0BDE8F0874FF4165101600021DB
:101A60008180C18001810C214181002181817047E9
:101A700010B502460020108A4FF2FF0318400B8871
:101A80004C8823438C882343CC88234318431082FB
:101A900010BD0021018041808180C180704721B14B
:101AA000828942F40052828104E082894DF6FF73FC
:101AB0001A4082817047F0B50346002400260025B5
:101AC000002040F66A17B94200D100BF1846C1F3A2
:101AD000421401F01F06012707FA06F5012C01D177
:101AE0000C3004E0022C01D1103000E014301AB1A7
:101AF00007682F43076002E00768AF430760F0BD47
:101B00001AB1838A0B43838202E0838A8B438382E8
:101B10007047028A4FF6F0731A400282028A0A4323
:101B20000282704782894FF2FF731A408281828954
:101B30000A438281704721B1828942F00202828188
:101B400004E082894FF6FD731A4082817047028A51
:101B50004FF6DF731A400282028A0A4302827047FC
:101B600021B1028A42F48042028204E0028A4BF6EA
:101B7000FF731A4002827047C1F3080282807047E7
:101B800001468888C0F308007047818941F001014F
:101B900081817047028BD2B20283028B42EA01221A
:101BA00002837047028B02F47F420283028B0A4356
:101BB0000283704721B1828A42F02002828204E0CF
:101BC000828A4FF6DF731A408282704721B1828A7F
:101BD00042F01002828204E0828A4FF6EF731A40CC
:101BE0008282704721B1828A42F00802828204E038
:101BF000828A4FF6F7731A408282704721B1828938
:101C000042F40042828103E08289C2F30E028281A3
:101C1000704721B1828A42F40062828204E0828AA3
:101C20004FF2FF731A4082827047828A4FF6FB732D
:101C30001A408282828A0A438282704721B1828A54
:101C400042F00202828204E0828A4FF6FD731A405B
:101C50008282704702460020B1F5007F00D100BFAC
:101C600013880B400BB1012000E00020704701F405
:101C70000072B2F5007F00D100BFCA4302807047F6
:101C800070B50246002400230025002040F66A16A5
:101C9000B14200D100BFC1F3421501F01F0301267C
:101CA00006FA03F3012D02D19689334006E0022D96
:101CB00002D1168A334001E0968A33400C12012685
:101CC00006FA04F41688344013B10CB1012000E088
:101CD000002070BD10B50022002340F66A14A14216
:101CE00000D100BF0A1201249440A3B2DC43048057
:101CF00010BD000000380140004400400048004092
:101D0000004C00400050004010B54FF4A060FEF7BA
:101D1000FBFA00F003FC00F07EFB00F047FC01F052
:101D200029F800F035FB00F095FC00F0F9FC00F01C
:101D300009FA10BDFFF7E8FF21E00121002000F0C3
:101D40001FF8012801D100F0A5F90221012000F0BF
:101D500017F8012801D100F044F80A21022000F010
:101D60000FF8012801D100F0D3F83221032000F050
:101D700007F8012801D100F07AF900F0E2F8DCE779
:101D800002460020FB4B9B5C13B9FA4B995401208F
:101D90007047F948807A012809D1F748C07A30B9EC
:101DA0000120F549087000208872087418E00020AE
:101DB000F149087008734873887308710021EE4870
:101DC000417181710020EC498872C8720846007C1C
:101DD000401C08740846007C032801DB012048747D
:101DE000704710B500F0FAFBE448007801281FD1D5
:101DF000E148007830B9E048007B18B90120DE499D
:101E0000087384E0DC4800780028FAD1DA48007BC7
:101E100001287CD1D8480079092803D10020D6496F
:101E2000087174E0D4480079401CD34908716EE011
:101E3000D2480078022820D1CF48007830B9CE4867
:101E4000407B18B90120CC49487360E0CA4800784B
:101E500000285CD1C848407B012858D1C648407949
:101E6000092803D10021C448417150E0C24840799B
:101E7000401CC1B2C048417149E0C0480078042804
:101E80001FD1BD48007830B9BB48807B18B901200C
:101E9000B94988733BE0B8480078C0BBB648807B3E
:101EA000012834D1B4488079092803D10021B248EF
:101EB00081712CE0B0488079401CC1B2AE4881717C
:101EC00025E0AE480078082821D10020AC490870F0
:101ED00017E0A948401CAA490978415CC01CA84ADF
:101EE0001278805C814204D10120A3498872C873B2
:101EF00002E00120A049C872A1480078401CA04916
:101F000008709F4800780328E3DBFFF742FF10BD0D
:101F100010B59948007C03280DDB9748407C0128C8
:101F200003D1022000F0C5FA0AE000214FF400704E
:101F300000F099FA04E000214FF4007000F093FAE9
:101F400010BD10B58C48007801280DD140F2F31176
:101F50008007FFF78DFC64210807FFF78DFC012146
:101F6000080200F080FA0FE040F2E7314FF08040C5
:101F7000FFF77EFC4FF4FA710807FFF77DFC0021A4
:101F80004FF4807000F06FFA7B48C07B02280BD1C1
:101F900000207949C8730870087348738873087102
:101FA000002175484171817110BD01205BE07549C8
:101FB0000978072900D058E07349C9782D2951D1F3
:101FC00000200AE07049095C392903DC6E49095C8C
:101FD000302900DA03E0411CC8B20328F2DB00BF5D
:101FE00004200AE06849095C392903DC6649095C78
:101FF000302900DA03E0411CC8B20628F2DB00BF3A
:102000006149097830395C4AD1715F494978303982
:10201000CAB259490A725C4989783039CAB25649FC
:102020004A72C979544A5278914209D152490A7A7E
:1020300089788A4204D150494A7AC9788A4200D0C4
:1020400013E05149097930394B4A51704E49497969
:102050003039CAB248498A704B4989793039CAB295
:102060004549CA7001E00028A1D100BF704700B502
:102070004648007801280CD1002044490870FFF739
:1020800094FF00203F4908703F4800210160818093
:10209000817100BD10B53848007800283DD13CA1C1
:1020A000182000F0E8FE3448007B01280AD13248AD
:1020B00002793DA13F4801F015F93E49482000F062
:1020C000DAFE03E03CA1482000F0D5FE2A48407B20
:1020D00001280AD1284842793DA1364801F002F989
:1020E0003449602000F0C7FE03E03CA1602000F00E
:1020F000C2FE2148807B01280AD11F4882793DA178
:102100002C4801F0EFF82B49782000F0B4FE18E0DD
:102110003BA1782000F0AFFE13E0174800780128BB
:102120000FD13DA1182000F0A6FE41A1482000F0EB
:10213000A2FE45A1602000F09EFE49A1782000F09B
:102140009AFE10BD10B501200B49487002210A48C3
:1021500081700321C17000200749087040F2E73107
:102160004FF08040FFF784FB4FF4FA710807FFF748
:1021700083FB10BD280000204C00002041000020FF
:10218000350000202C0000202E0000202D00002013
:1021900020202020202020505344202020202020B8
:1021A00020202020000000002020202042313A255D
:1021B00064000000620000202020202042313A40CC
:1021C000202020202020202020202020200000006F
:1021D0002020202042323A256400000020202020C8
:1021E00042323A4020202020202020202020202081
:1021F000200000002020202042333A256400000007
:102200002020202042333A4020202020202020205F
:1022100020202020200000002020202020202053EB
:1022200054412020202020202020202000000000D9
:1022300020202020463A32303030487A202020209A
:10224000202020202020000020202020443A31306F
:1022500025202020202020202020202020200000B9
:10226000202020202020202020202020202020206E
:102270002020200010B501213548FFF72CFB012854
:1022800042D101213248FFF737FB00203149087065
:1022900013E031482F490978405C002808DD2E48BA
:1022A0002C490978405C401E2B492A4A12788854F0
:1022B00028480078401C27490870264800780428E0
:1022C000E7DB2648C07B01280DD125480088401C4B
:1022D00080B223490880B0F5FA7F04D1002008803D
:1022E00002201E49C8731D48407C01280CD11D489E
:1022F0000088401C80B21B490880B0F5FA7F03D1EA
:10230000002008801549487410BD10B540F22551D1
:102310001548FFF7B5FC58B11348FFF731FCC1B2BF
:10232000124802780078401C104B187010488154F5
:1023300040F224410C48FFF7A3FC38B10A4800885A
:102340000948001D008801200A49087010BD0000DE
:102350000008004036000020280000204C0000202B
:10236000380000203A000020004400402C000020EB
:102370002E0000202D000020704700BFFEE700BFA8
:10238000FEE700BFFEE700BFFEE7704770477047FB
:102390001FB501210420FEF74EFB1E208DF80C0016
:1023A00003208DF80D0001208DF80E008DF80F0030
:1023B00003A8FDF7AEFF42F20F70ADF80400002055
:1023C000ADF80000ADF8020069460948FEF75EFC72
:1023D000012247210648FFF75CF801221146044814
:1023E000FEF7CBFF01210248FEF7ACFF1FBD000046
:1023F000000800404548006840F004004349086078
:102400004FF6FF704249C8604048006820F0040061
:102410003E490860704708B501213020FEF7FEFAFA
:102420000420ADF8000010208DF8030003208DF883
:102430000200694635480C38FEF734F84FF47F4007
:10244000ADF8000069463248FEF72CF84FF47F41A2
:102450002F48FEF7D4F804212C480C38FEF7D1F8A9
:10246000FFF7C8FF08BD70B504460D4685B1274883
:10247000006840F004002549086021462448FEF722
:10248000C0F82248006820F00400204908600FE0EE
:102490001E48006840F004001C49086021461C48A2
:1024A000FEF7ADF81948006820F0040017490860ED
:1024B00070BDC11DC8B21649C96801228240514091
:1024C000134AD1601149096841F004010F4A1160B3
:1024D0001146096821F004011160704708B5012117
:1024E0000920FEF79BFA01210A48FEF7ACF81020FC
:1024F000ADF8000003208DF8020010208DF80300D5
:1025000069460548FDF7CEFF08BD00000C140140E8
:102510000010014000013000000C014030B51F48A0
:1025200000684FF47A72B0FBF2F1B1F1807F00D312
:102530001DE021F07F40401E4FF0E0225061501717
:102540000F22002807DA13071D0E154B00F00F04A9
:10255000241F1D5503E013071C0E124B1C5400BF13
:1025600000204FF0E02290610720106100BF30BDD5
:102570000D49086000BF0C4909680029FBD170476C
:1025800009480068401E08490860704747F230500B
:1025900000BF011EA0F10100FBD170470000002028
:1025A00018ED00E000E400E03C00002008B5012147
:1025B0000C20FEF733FA40F20110ADF800000420C1
:1025C0008DF8030069461E48FDF76CFF0620ADF844
:1025D000000069461B48FDF765FF08BD70B5F02493
:1025E00001211748FDF7F1FF05464FF480711448AB
:1025F000FDF7EBFF45EA400502211248FDF7E5FF34
:1026000045EA800504210F48FDF7DFFF45EAC000D9
:102610002043C4B284F0FF040B480078604020409F
:102620000A4908700CB9012000E000200649097829
:1026300061400840064908700348047070BD0000FE
:1026400000080140000C0140400000204100002033
:102650004200002030B589B000254FF4FA74012102
:102660000846FEF7E8F901210520FEF7D7F9062014
:10267000ADF8040018208DF8070003208DF806003F
:1026800001A92448FDF70EFF234800682349B0FB49
:10269000F1F0401E85B240F2E730ADF81C00ADF815
:1026A00018500020ADF81E00ADF81A0006A920074A
:1026B000FEF7ECFA6020ADF808000120ADF80A0042
:1026C000ADF80E400020ADF8100002A92007FEF77B
:1026D0005CFB0821C806FEF76EFF6020ADF808001D
:1026E0000120ADF80A00ADF80E400020ADF8100052
:1026F00002A92007FEF796FB0821C806FEF768FF2F
:1027000001218807FEF71EFF01218807FEF71AFE48
:1027100009B030BD000801400000002040420F0019
:1027200000B587B001210520FEF778F901214804A2
:10273000FEF781F90420ADF8180018208DF81B0071
:1027400003208DF81A0006A93948FDF7ABFE0820D2
:10275000ADF8180004208DF81B0006A93448FDF7D9
:10276000A1FE4FF4165002900020ADF80C00ADF819
:102770000E00ADF810000C20ADF812000020ADF8EE
:10278000140002A92B48FFF7FEF801212948FFF7A2
:1027900086F9012240F225512648FFF78CF90122E3
:1027A00040F224412348FFF786F926208DF80400E3
:1027B00000208DF805008DF8060001208DF8070037
:1027C00001A8FDF7A6FD07B000BD10B5044600BF87
:1027D00080211848FFF73EFA0028F9D02146154815
:1027E000FFF7CAF910BD70B5054600240DE0285763
:1027F00081B21048FFF7C0F900BF80210D48FFF7F4
:1028000029FA0028F9D0601CC4B2142CEFDB70BD8B
:1028100070B504460D46E1B20648FFF7ADF900BFBA
:1028200080210448FFF716FA0028F9D0204670BD31
:10283000000801400044004001B5BDF80000FE4919
:10284000088008BD01B5BDF80000FC49088008BD3E
:10285000FB4AD26891B24FF40072FA4B1A605210E0
:102860001B1F1A6020221A60F54AD06020221B1D0F
:102870001A601B1F1A60D2001A6052001A60F04AD8
:10288000D1607047EE49C96888B24FF40071ED4AD3
:102890001160491011602021121F11602221E84AA5
:1028A000D1602021E74A1160121F1160C900116038
:1028B00049001160E249C860704710B5E04BDB6821
:1028C0009AB24FF40073DF4C23605B102360202327
:1028D000241F2360DA4BD8602023241D2360241F8B
:1028E0002360DB002360D64BD9602023241D2360A6
:1028F000241F2360DB002360D14BDA6010BD30B5AC
:1029000004460D4621462020FFF7D7FF2946212007
:10291000FFF7D3FF30BD30B505460024002108463F
:10292000FFF7EDFFFFF7AEFF00BF03E02846FFF71C
:102930008FFF641CB4F5963FF8D330BD08B54FF651
:10294000FF70ADF8000003208DF8020010208DF814
:1029500003006946BA48FDF7A5FD08BD08B54FF666
:10296000FF70ADF8000003208DF8020048208DF8BC
:1029700003006946B248FDF795FD08BD70B50446F1
:102980004FF40070AF490860401008602020091F14
:102990000860AB48C4602020091D0860091F08605A
:1029A000C0000860FFF7DAFF4FF48060A5490860B7
:1029B000A348806885B20815091F0860FFF7BEFFAD
:1029C0004FF400709F49091F0860284670BD10B57C
:1029D00043F20801E320FFF770FF1221E720FFF721
:1029E0006CFF41F23121EF20FFF767FF002101204A
:1029F000FFF763FF4FF4E0610220FFF75EFF41F253
:102A000030010320FFF759FF00210420FFF755FF95
:102A100040F207210820FFF750FF00210920FFF7AF
:102A20004CFF00210A20FFF748FF00210C20FFF790
:102A300044FF00210D20FFF740FF00210F20FFF78A
:102A40003CFF00211020FFF738FF07211120FFF77E
:102A500034FF00211220FFF730FF00211320FFF781
:102A60002CFFC820FFF784FD41F290611020FFF792
:102A700024FF40F227211120FFF71FFF0A20FFF754
:102A800077FD1D211220FFF718FF0A20FFF770FDC8
:102A90004FF400611320FFF710FF14212920FFF7E6
:102AA0000CFF0B212B20FFF708FF0A20FFF760FD2A
:102AB00000212020FFF701FF00212120FFF7FDFE6C
:102AC00007213020FFF7F9FE40F207713120FFF7B0
:102AD000F4FE06213220FFF7F0FE40F204713520AB
:102AE000FFF7EBFE41F604713620FFF7E6FE042106
:102AF0003720FFF7E2FE00213820FFF7DEFE40F22C
:102B000006713920FFF7D9FE40F201713C20FFF732
:102B1000D4FE0F213D20FFF7D0FE00215020FFF70B
:102B2000CCFEEF215120FFF7C8FE00215220FFF715
:102B3000C4FE40F23F115320FFF7BFFE4FF41C517B
:102B40006020FFF7BAFE01216120FFF7B6FE0021E9
:102B50006A20FFF7B2FE00218020FFF7AEFE0021C1
:102B60008120FFF7AAFE00218220FFF7A6FE0021A8
:102B70008320FFF7A2FE00218420FFF79EFE0021A4
:102B80008520FFF79AFE10219020FFF796FE002186
:102B90009220FFF792FE03219320FFF78EFE4FF461
:102BA00088719520FFF789FE00219720FFF785FEA9
:102BB00000219820FFF781FE41F218010320FFF762
:102BC0007CFE40F273110720FFF777FE10BD10B5B1
:102BD00001210020FFF771FEC820FFF7C9FC00218A
:102BE0000120FFF76AFE41F290711020FFF765FEA9
:102BF0004FF41C516020FFF760FE01216120FFF7B8
:102C00005CFE02214620FFF758FE48F21001132017
:102C1000FFF753FE48F2FE011220FFF74EFE4FF47D
:102C2000A0610220FFF749FE41F230010320FFF7C7
:102C300044FE40F2033107E046000020440000203B
:102C400000100140140C01403020FFF736FE40F226
:102C500003313120FFF731FE40F203313220FFF71C
:102C60002CFE4FF440713320FFF727FE0321342060
:102C7000FFF723FE40F203313520FFF71EFE14213B
:102C80003620FFF71AFE40F203313720FFF715FE1A
:102C900040F203313820FFF710FE40F203313920B3
:102CA000FFF70BFE4FF440713A20FFF706FE0321B9
:102CB0003B20FFF702FE40F203313C20FFF7FDFD11
:102CC0004FF4A0513D20FFF7F8FD4FF40071922022
:102CD000FFF7F3FD40F203319320FFF7EEFD40F6DE
:102CE0000D019020FFF7E9FD41F218010320FFF7E5
:102CF000E4FD40F273110720FFF7DFFD10BD08B5BA
:102D000001211820FDF78AFE01212020FDF786FE13
:102D10004FF4E460ADF8000001208DF802001020AF
:102D20008DF803006946F748FDF7BCFBFFF706FE88
:102D3000F4481030006840F4C460F2491031086073
:102D400008BD10B5FFF7DBFF0020FFF717FEEE49C7
:102D500008800846008848F23021884202D1FFF7F7
:102D600036FF01E0FFF733FE0020FFF707FEE649DC
:102D7000088010BD10B5FFF7E4FF0020FFF7CBFD82
:102D80004FF6FF70FFF75EFD0020FFF755FD10BD09
:102D90002DE9F04306468946174600240025A04643
:102DA000B04649464046FFF7AAFD00BF1EE0FFF7C8
:102DB00069FD00250FE037F814000121A940084003
:102DC00020B9D2480088FFF743FD03E0D0480088CF
:102DD000FFF73EFD6D1C102DEDD308F1010000F052
:102DE000FF0849464046FFF78AFD641C182CDED3D5
:102DF000BDE8F08370B505460E461446A4F12000E8
:102E0000C4B204EB4400C34901EB0012314628462A
:102E1000FFF7BEFF70BD70B506460C4600254FF4A7
:102E20007840FFF70FFD325D2001C0F5A07081B240
:102E30006020FFF7DFFF601C325C0001C0F5A0706E
:102E400081B26020FFF7D6FF4FF6FF70FFF7FAFC64
:102E500000BF0DE0A5420AD0601C854207D0725D1C
:102E60002801C0F5A07081B26020FFF7C3FF6D1C80
:102E7000132DEFDD70BDF0B507460C46002540F27E
:102E80003F1609E0227831463846FFF7B3FFA6F136
:102E9000100086B2641C6D1C207808B1142DF1D38B
:102EA000F0BD10B504469CA12046FFF7E4FF10BD1D
:102EB000F0B504460D4616461F46B44206DBA01B7D
:102EC000401C81B25020FFF7F8FC03E000215020A5
:102ED000FFF7F3FC21465120FFF7EFFCBD4206DB74
:102EE000E81B401C81B25220FFF7E7FC03E0002101
:102EF0005220FFF7E2FC29465320FFF7DEFC29466B
:102F00002046FFF7FCFCF0BD00B54FF4A073F022A3
:102F1000591EEF20FFF7CCFF41F218010320FFF705
:102F2000CCFC00BD2DE9F0410646884615461F46FB
:102F3000002441463046FFF7E2FC5FB9FFF7A2FCF0
:102F400000BF04E072480088FFF782FC641CAC42BA
:102F5000F8D310E000240CE0FFF794FC6C480088E4
:102F6000FFF776FC701CC6B241463046FFF7C7FC3F
:102F7000641CAC42F0D3BDE8F081F0B505460E46C6
:102F800017461C460023224631462846FFF7CAFF53
:102F9000E919C8B2002322463146FFF7C3FF0123D7
:102FA0003A4631462846FFF7BDFF301B401C81B230
:102FB00001233A462846FFF7B5FFF0BD2DE9F0435F
:102FC00006460F4690460320A0EB480900244546DC
:102FD0006EE07A1991B23219D0B2FFF790FCFFF788
:102FE00051FC4B480088FFF733FC7A1B91B2321931
:102FF000D0B2FFF784FCFFF745FC45480088FFF797
:1030000027FC7A1991B2321BD0B2FFF778FCFFF798
:1030100039FC3F480088FFF71BFC7A1B91B2321B3A
:10302000D0B2FFF76CFCFFF72DFC39480088FFF7A2
:103030000FFC3A1991B27219D0B2FFF760FCFFF79A
:1030400021FC33480088FFF703FC3A1B91B2721948
:10305000D0B2FFF754FCFFF715FC2D480088FFF7AE
:10306000F7FB3A1991B2721BD0B2FFF748FCFFF799
:1030700009FC27480088FFF7EBFB3A1B91B2721B53
:10308000D0B2FFF73CFCFFF7FDFB21480088FFF7BB
:10309000DFFBB9F1000F04DA062000EB8400814465
:1030A00005E0601B0A2101EB800081446D1E641C59
:1030B000AC428ED9BDE8F08370B5064600240025E9
:1030C00040F23F110020FFF71AFCFFF7DBFB00BFC7
:1030D00014E000250FE056F824000121A940084023
:1030E00020B90A480088FFF7B3FB03E008480088CE
:1030F000FFF7AEFB6D1C202DEDD3641CB4F5166FED
:10310000E7D370BD000C01404800002046000020BD
:10311000440000208A340008202020202020202085
:10312000202020202020202020202020000000001F
:1031300070B50446002500266688A08846EA004649
:103140006589A08945EA0045701B46082C4441F278
:1031500008010320FFF7B1FBFFF794FB002504E013
:103160002088FFF775FBA41C6D1CB542F8D341F213
:1031700018010320FFF7A1FB70BD10B54FF40070DC
:1031800042490860401008602020091F0860222082
:103190003F49C86020203D490860091F0860C00001
:1031A0000860FFF7DBFB4FF480603849086038485F
:1031B000806884B20815091F0860FFF7BFFB4FF451
:1031C00000703249091F0860204610BD10B500216B
:1031D0001020FFF772FB00211120FFF76EFB00218A
:1031E0001220FFF76AFB00211320FFF766FB042083
:1031F000FFF7BEF941F2B0711020FFF75EFB40F21D
:1032000037111120FFF759FB0120FFF7B1F940F208
:1032100039111220FFF751FB0120FFF7A9F94FF4F4
:10322000E8511320FFF749FB13212920FFF745FB45
:103230000120FFF79DF940F273110720FFF73DFBD6
:1032400010BD00B540F273110720FFF736FB00BD3B
:1032500000B500210720FFF730FB00BD30B5054663
:1032600000210846FFF74BFBFFF70CFB002409E0A9
:1032700015F814206100491C695C42EA0120FFF73F
:10328000E7FA641CB4F5963FF2DB30BD140C014044
:103290000010014030B50B460146002020220124D9
:1032A00009E021FA02F59D4205D303FA02F5491B14
:1032B00004FA02F52844151EA2F10102F1DC30BD2A
:1032C000064C074D06E0E06840F0010394E8070073
:1032D00098471034AC42F6D3FCF70CFF5C4600086C
:1032E0007C4600080FB4084B10B504A902AA039845
:1032F00000F01CF8044602A9002000F0C1F82046A6
:1033000010BC5DF814FB00008134000802E008C81E
:10331000121F08C1002AFAD170477047002001E04F
:1033200001C1121F002AFBD1704700002DE9FF4F99
:1033300089B09B460446002506E025280BD05A4656
:103340000B999047641C6D1C20780028F5D10DB0B6
:103350002846BDE8F08F0027B8460122474900E023
:10336000074314F8013F203B02FA03F00842F7D16B
:1033700020782E2819D114F8010F47F004072A28C5
:103380000ED06FF02F022078A0F1300109290CD85F
:1033900008EB880102EB410100EB0108641CF2E735
:1033A0000A98641C50F8048B0A9020780028CED02C
:1033B000642808D0692806D075281ED05A460B9973
:1033C00090476D1C58E00A994FF00A0901C90A910B
:1033D000002802DA40422D2102E0390504D52B21D4
:1033E0008DF82010012103E0F90704D02021F7E730
:1033F0008A4608AE0DE00021FAE70A994FF00A0963
:1034000001C90A91F7E74946FFF744FF303106F852
:10341000011D0028F7D1ADEB060000F12009780767
:1034200001D44FF00108C84502DDA8EB090000E017
:1034300000208046002706E008A85A46C05D0B9988
:1034400090476D1C7F1C5745F6DB04E030205A4640
:103450000B9990476D1CB8F10001A8F10108F5DC4B
:1034600005E016F8010B5A460B9990476D1CB9F10F
:103470000001A9F10109F4DC641C65E709280100D9
:103480000A68531C0B6010707047000000000000B9
:10349000000000000000000000000000000000002C
:1034A000000000000000000000000000000000001C
:1034B000000000000000000000000000800180010A
:1034C00080018001800180018001800180018001F4
:1034D0008001800180010000000080018001000067
:1034E0000000000000000000000000000000CC0010
:1034F000CC00CC00CC00CC00CC00000000000000D0
:1035000000000000000000000000000000000000BB
:1035100000000000000000000000000000000000AB
:10352000000000000000600C600C600C30063006EB
:10353000FE1FFE1F300638071803FE1FFE1F18036C
:1035400018038C018C018C01000000008000E00356
:10355000F80F9C0E8C1C8C188C009800F801E0076A
:10356000800E801C8C188C189C18B80CF00FE0038F
:10357000800080000000000000000000000000004B
:103580000E181B0C110C11061106110311039B01DF
:103590008E01C038C06C60446044304430441844EC
:1035A000186C0C380000000000000000E001F0037F
:1035B0003807180618063003F001F000F8009C31B7
:1035C0000E33061E061C061C063FFC73F02100008D
:1035D00000000000000000000000000000000C00DF
:1035E0000C000C000C000C000C000000000000009F
:1035F00000000000000000000000000000000000CB
:1036000000000000000000000000000000020003B5
:103610008001C000C0006000600030003000300059
:103620003000300030003000300060006000C0002A
:10363000C0008001000300020000000020006000C4
:10364000C0008001800100030003000600060006A0
:1036500000060006000600060006000300038001C5
:103660008001C00060002000000000000000000099
:10367000000000000000C000C000D806F807E0010C
:1036800030033807000000000000000000000000C8
:10369000000000000000000000000000000000002A
:1036A0000000000000008001800180018001800195
:1036B000FC3FFC3F8001800180018001800100000F
:1036C00000000000000000000000000000000000FA
:1036D00000000000000000000000000000000000EA
:1036E00000000000000000000000000080018001D8
:1036F0000001000180000000000000000000000048
:1037000000000000000000000000000000000000B9
:103710000000E007E00700000000000000000000DB
:103720000000000000000000000000000000000099
:103730000000000000000000000000000000000089
:10374000000000000000000000000000C000C000F9
:10375000000000000000000000000000000C000C51
:10376000000600060006000300030003800380013A
:1037700080018001C000C000C00060006000000047
:10378000000000000000000000000000E003F0075F
:10379000380E180C0C180C180C180C180C180C18E7
:1037A0000C180C180C18180C380EF007E003000069
:1037B0000000000000000000000000000001800187
:1037C000C001F00198018801800180018001800121
:1037D0008001800180018001800180018001000062
:1037E000000000000000000000000000E003F80FEF
:1037F000180C0C180C1800180018000C0006000318
:103800008001C000600030001800FC1FFC1F000099
:10381000000000000000000000000000E001F807C8
:10382000180E0C0C0C0C000C0006C003C007000C9A
:10383000001800180C180C18180CF807E00300000A
:10384000000000000000000000000000000C000E5E
:10385000000F000F800DC00C600C600C300C180CB9
:103860000C0CFC3FFC3F000C000C000C000C00009A
:10387000000000000000000000000000F80FF80F3A
:10388000180018000C00EC03FC071C0E001C0018AC
:10389000001800180C181C0C180EF807E0030000A4
:1038A000000000000000000000000000C007F00F52
:1038B000381C181818000C00CC03EC0F3C0E1C1C14
:1038C0000C180C180C18181C380EF007E003000038
:1038D000000000000000000000000000FC1FFC1FB2
:1038E000000C00060006000380038001C001C00038
:1038F000E000600060007000300030003000000028
:10390000000000000000000000000000E003F007DD
:10391000380E180C180C180C3806F007F007180CA5
:103920000C180C180C180C18380CF80FE0030000D9
:10393000000000000000000000000000E003F007AD
:10394000380E1C0C0C180C180C181C1C381EF81BFC
:10395000E0190018000C000C1C0EF807F001000024
:103960000000000000000000000000000000000057
:103970000000000000008001800100000000000045
:103980000000000000000000000080018001000035
:103990000000000000000000000000000000000027
:1039A0000000000000008001800100000000000015
:1039B0000000000000000000000080018001000104
:1039C0000001800000000000000000000000000076
:1039D000000000000000000000000010001C800F2C
:1039E000E003F8001800F800E003800F001C00104E
:1039F00000000000000000000000000000000000C7
:103A000000000000000000000000F81F000000009F
:103A10000000F81F0000000000000000000000008F
:103A20000000000000000000000000000000000096
:103A30000000000000000000000008003800F00155
:103A4000C007001F0018001FC007F0013800080061
:103A5000000000000000000000000000E003F80F7C
:103A6000180C0C180C180018000C0006000380013C
:103A7000C000C000C00000000000C000C000000086
:103A80000000000000000000000000000000E0074F
:103A900018180420C229224A11440944094409443F
:103AA00009221113E20C024004201818E00700005C
:103AB0000000000000000000000000008003800300
:103AC000C006C006C006600C600C301830183018F4
:103AD000F83FF83F1C700C600C6006C006C0000088
:103AE000000000000000000000000000FC03FC0FCC
:103AF0000C0C0C180C180C180C0CFC07FC0F0C18F8
:103B00000C300C300C300C300C18FC1FFC07000083
:103B1000000000000000000000000000C007F01FCF
:103B200038381C300C7006600600060006000600DF
:103B30000600060006600C701C30F01FE007000055
:103B4000000000000000000000000000FE03FE0F67
:103B5000060E061806180630063006300630063007
:103B60000630063006180618060EFE0FFE0300008B
:103B7000000000000000000000000000FC3FFC3FCF
:103B80000C000C000C000C000C00FC1FFC1F0C00B7
:103B90000C000C000C000C000C00FC3FFC3F000073
:103BA000000000000000000000000000F83FF83FA7
:103BB00018001800180018001800F81FF81F180047
:103BC000180018001800180018001800180000004D
:103BD000000000000000000000000000E00FF83FBF
:103BE0003C780E6006E007C00300030003FE03FEFE
:103BF00003C007C006C00EC03CF0F83FE00F000055
:103C00000000000000000000000000000C300C303C
:103C10000C300C300C300C300C30FC3FFC3F0C30C6
:103C20000C300C300C300C300C300C300C300000F0
:103C30000000000000000000000000008001800182
:103C4000800180018001800180018001800180016C
:103C500080018001800180018001800180010000DD
:103C60000000000000000000000000000006000648
:103C70000006000600060006000600060006000614
:103C800000060006180618063807F003E0010000D9
:103C900000000000000000000000000006300618D0
:103CA000060C060606038601C60066007600DE00E6
:103CB0008E0106030606060C061806300660000094
:103CC00000000000000000000000000018001800C4
:103CD0001800180018001800180018001800180024
:103CE00018001800180018001800F81FF81F00002E
:103CF0000000000000000000000000000EE01EF0C8
:103D00001EF01EF036D836D836D836D866CC66CCFB
:103D100066CCC6C6C6C6C6C6C6C686C386C30000AF
:103D20000000000000000000000000000C301C300B
:103D30003C303C306C306C30CC30CC308C310C337F
:103D40000C330C360C360C3C0C3C0C380C300000A0
:103D5000000000000000000000000000E007F81F65
:103D60001C380E70066003C003C003C003C003C04C
:103D700003C003C006600E701C38F81FE007000087
:103D8000000000000000000000000000FC0FFC1F0D
:103D90000C380C300C300C300C300C18FC1FFC07AD
:103DA0000C000C000C000C000C000C000C000000BF
:103DB000000000000000000000000000E007F81F05
:103DC0001C380E70066003E003C003C003C003C0CC
:103DD00003C007E006630E3F1C3CF83FE0F700C05D
:103DE000000000000000000000000000FE0FFE1FA9
:103DF00006380630063006300638FE1FFE0706037A
:103E00000606060C06180618063006300660000086
:103E1000000000000000000000000000E003F80FB8
:103E20001C0C0C180C180C001C00F803E00F001EF2
:103E30000038063006300E301C1CF80FE00700007A
:103E4000000000000000000000000000FE7FFE7F78
:103E5000800180018001800180018001800180015A
:103E600080018001800180018001800180010000CB
:103E70000000000000000000000000000C300C30CA
:103E80000C300C300C300C300C300C300C300C3052
:103E90000C300C300C300C301818F81FE007000004
:103EA0000000000000000000000000000360063079
:103EB000063006300C180C180C18180C180C380E9C
:103EC00030063006700760036003C001C0010000C7
:103ED0000000000000000000000000000360C3615B
:103EE000C361C361663366336633663366336633F4
:103EF0006C1B6C1B6C1B2C1A3C1E380E380E000001
:103F00000000000000000000000000000FE00C7046
:103F100018303018700C600EC00780038003C00397
:103F2000E006700C301C18180C300E6007E0000022
:103F300000000000000000000000000003C0066058
:103F40000C301C383818300C6006E007C0038001C4
:103F500080018001800180018001800180010000DA
:103F6000000000000000000000000000FC7FFC7F5B
:103F7000006000300018000C000600038001C00043
:103F80006000300018000C000600FE7FFE7F00007D
:103F9000000000000000000000000000E003E0035B
:103FA0006000600060006000600060006000600011
:103FB0006000600060006000600060006000600001
:103FC00060006000E003E00300000000300030000B
:103FD000600060006000C000C000C000C00180013F
:103FE00080018001000300030003000600060000BA
:103FF000000000000000000000000000E003E003FB
:104000000003000300030003000300030003000398
:104010000003000300030003000300030003000388
:1040200000030003E003E003000000000000C00103
:10403000C00160036003600330063006180C180CE2
:104040000000000000000000000000000000000070
:104050000000000000000000000000000000000060
:104060000000000000000000000000000000000050
:10407000000000000000000000000000FFFFFFFF44
:104080000000000000000000000000000C000C0018
:104090000C000C000C000C000000000000000000F0
:1040A0000000000000000000000000000000000010
:1040B0000000000000000000000000000000000000
:1040C000000000000000F003F8071C0C0C0C000FAF
:1040D000F00FF80C0C0C0C0C1C0FF80FF018000073
:1040E00000000000000000000000000018001800A0
:1040F000180018001800D803F80F380C18181818F2
:104100001818181818181818380CF80FD8030000C9
:10411000000000000000000000000000000000009F
:10412000000000000000C003F007300E180C18005B
:10413000180018001800180C300EF007C00300001B
:10414000000000000000000000000000001800183F
:10415000001800180018C01BF01F301C1818181881
:104160001818181818181818301CF01FC01B000059
:10417000000000000000000000000000000000003F
:10418000000000000000C003F00F300C1818F81FEA
:10419000F81F180018003818301CF00FC007000076
:1041A000000000000000000000000000800FC00FB1
:1041B000C000C000C000F007F007C000C000C00091
:1041C000C000C000C000C000C000C000C0000000AF
:1041D00000000000000000000000000000000000DF
:1041E000000000000000E00DF80F180E0C0C0C0C85
:1041F0000C0C0C0C0C0C0C0C180EF80FE00D000C39
:104200000C0C1C06F807F001000000001800180054
:10421000180018001800D807F80F381C18181818BC
:10422000181818181818181818181818181800003E
:10423000000000000000000000000000C000C000FE
:10424000000000000000C000C000C000C000C000AE
:10425000C000C000C000C000C000C000C00000001E
:10426000000000000000000000000000C000C000CE
:10427000000000000000C000C000C000C000C0007E
:10428000C000C000C000C000C000C000C000C0002E
:10429000C000C000F8007800000000000C000C0016
:1042A0000C000C000C000C0C0C060C038C01CC0058
:1042B0006C00FC009C018C030C030C060C0C000031
:1042C000000000000000000000000000C000C0006E
:1042D000C000C000C000C000C000C000C000C000DE
:1042E000C000C000C000C000C000C000C00000008E
:1042F00000000000000000000000000000000000BE
:104300000000000000007C3CFF7EC7E383C183C146
:1043100083C183C183C183C183C183C183C10000C1
:10432000000000000000000000000000000000008D
:104330000000000000009807F80F381C1818181823
:10434000181818181818181818181818181800001D
:10435000000000000000000000000000000000005D
:10436000000000000000C003F00F300C18181818EF
:104370001818181818181818300CF00FC00300007F
:10438000000000000000000000000000000000002D
:10439000000000000000D803F80F380C1818181897
:1043A0001818181818181818380CF80FD80318000F
:1043B000180018001800180000000000000000009D
:1043C000000000000000C01BF01F301C1818181857
:1043D0001818181818181818301CF01FC01B0018CF
:1043E000001800180018001800000000000000006D
:1043F000000000000000B007F00370003000300043
:10440000300030003000300030003000300000005C
:10441000000000000000000000000000000000009C
:10442000000000000000E003F003380E180C380014
:10443000F003C007000C180C380EF007E003000072
:1044400000000000000000000000000000008000EC
:10445000C000C000C000F007F007C000C000C000EE
:10446000C000C000C000C000C000C007800700003E
:10447000000000000000000000000000000000003C
:10448000000000000000181818181818181818183C
:104490001818181818181818381CF01FE019000000
:1044A000000000000000000000000000000000000C
:1044B0000000000000000C18180C180C180C300636
:1044C00030063006600360036003C001C0010000D5
:1044D00000000000000000000000000000000000DC
:1044E000000000000000C141C141C3616363636318
:1044F00063633636363636361C1C1C1C1C1C00000A
:1045000000000000000000000000000000000000AB
:104510000000000000001C38381C300C60066003EE
:104520006003600360036006300C381C1C38000018
:10453000000000000000000000000000000000007B
:104540000000000000001830301830187018600C9F
:10455000600CE00CC006C00680038003800380016D
:104560008001C001F00070000000000000000000A9
:10457000000000000000FC1FFC1F000C00060003F0
:104580008001C000600030001800FC1FFC1F00000C
:104590000000000000000000000000000003800197
:1045A000C000C000C000C000C000C00060006000CB
:1045B000300060004000C000C000C000C000C0006B
:1045C000C0008001000300000000000080018001A5
:1045D00080018001800180018001800180018001D3
:1045E00080018001800180018001800180018001C3
:1045F0008001800180018001000000006000C00097
:10460000C00180018001800180018001000300035E
:10461000000600030001800180018001800180010B
:104620008001C000600000000000000000000000E9
:1046300000000000000000000000F010F81F080F4C
:10464000000000000000000000000000000000006A
:104650000000000000000000000000007C46000890
:10466000000000204C0000000C330008C846000881
:104670004C0000202C0400001C33000800A24A0457
:104680000000000000000000010203040607080902
:1046900000000000010203040102030406070809E8
:1046A00002040608000000000000000000000000F6
:1046B00000000000000000000000000000000000FA
:0846C0000000FFFF00000000F4
:04000005080000ED02
:00000001FF
